:100000000C942A000C9447000C9447000C94470071
:100010000C9447000C9447000C9447000C94470044
:100020000C9447000C9447000C9447000C94470034
:100030000C9447000C9464000C948D000C94B60052
:100040000C9447000C9447000C9447000C94470014
:100050000C94470011241FBECFE5D8E0DEBFCDBF12
:1000600014E0A0E6B0E0E2ECFAE002C005900D92E8
:10007000A431B107D9F714E0A4E1B4E001C01D92A6
:10008000AC31B107E1F70E9416050C945F050C94A2
:100090000000579856985598529886E880BD83E39B
:1000A00089B9549A539A08955D9BFECF8CB90895EF
:1000B0005F9BFECF8CB1089501C08CB15F99FDCFDD
:1000C00008950895089508951F920F920FB60F9204
:1000D00011242F933F934F935F936F937F938F934D
:1000E0009F93AF93BF93EF93FF93E0911504F0912B
:1000F0001604309709F00995FF91EF91BF91AF91E8
:100100009F918F917F916F915F914F913F912F912F
:100110000F900FBE0F901F9018951F920F920FB661
:100120000F9211242F933F934F935F936F937F937D
:100130008F939F93AF93BF93EF93FF93E091190435
:10014000F0911A04309709F00995FF91EF91BF9152
:10015000AF919F918F917F916F915F914F913F915F
:100160002F910F900FBE0F901F9018951F920F9216
:100170000FB60F9211242F933F934F935F936F937A
:100180007F938F939F93AF93BF93EF93FF93E091F0
:100190001704F0911804309709F00995FF91EF9139
:1001A000BF91AF919F918F917F916F915F914F918F
:1001B0003F912F910F900FBE0F901F901895813097
:1001C00051F0813018F0823079F40AC0709316042F
:1001D00060931504089570931804609317040895AC
:1001E00070931A04609319040895FC0104C05D9B88
:1001F000FECF31968CB980818823C9F70895FC0120
:100200005F9BFECF8CB1808305C05F9BFECF8CB11E
:100210008183319680818A30C1F7108208958CB134
:1002200008950E9456059C0180E0232B09F481E08B
:1002300008954130B1F5813099F0813030F082304D
:10024000D1F0833009F067C021C02AB381E090E08B
:1002500002C0880F991F6A95E2F7282B2ABB0895E0
:1002600027B381E090E002C0880F991F6A95E2F7FA
:10027000282B27BB089524B381E090E002C0880FAB
:10028000991F6A95E2F7282B24BB089521B381E0DA
:1002900090E002C0880F991F6A95E2F7282B21BBD6
:1002A00008954423C1F5813099F0813028F08230DF
:1002B000D9F0833081F524C02AB381E090E002C0F8
:1002C000880F991F6A95E2F7809582238ABB08956B
:1002D00027B381E090E002C0880F991F6A95E2F78A
:1002E0008095822387BB089524B381E090E002C00B
:1002F000880F991F6A95E2F78095822384BB089541
:1003000021B381E090E002C0880F991F6A95E2F75F
:100310008095822381BB0895813049F0813028F097
:10032000823039F0833041F406C06ABB089567BB60
:10033000089564BB089561BB08954130B1F58130E3
:1003400099F0813030F08230D1F0833009F067C00D
:1003500021C02BB381E090E002C0880F991F6A95FD
:10036000E2F7282B2BBB089528B381E090E002C070
:10037000880F991F6A95E2F7282B28BB089525B3AB
:1003800081E090E002C0880F991F6A95E2F7282B60
:1003900025BB089522B381E090E002C0880F991F29
:1003A0006A95E2F7282B22BB08954423C1F58130DA
:1003B00099F0813028F08230D9F0833081F524C063
:1003C0002BB381E090E002C0880F991F6A95E2F795
:1003D000809582238BBB089528B381E090E002C012
:1003E000880F991F6A95E2F78095822388BB08954C
:1003F00025B381E090E002C0880F991F6A95E2F76B
:100400008095822385BB089522B381E090E002C0ED
:10041000880F991F6A95E2F78095822382BB089521
:10042000813049F0813028F0823039F0833041F456
:1004300006C06BBB089568BB089565BB089562BB99
:100440000895813051F0813030F0823041F08330B6
:1004500079F080E0089589B303C086B301C083B307
:1004600090E002C0959587956A95E2F781700895AE
:1004700080B390E002C0959587956A95E2F7817008
:100480000895813051F0813030F0823041F0833076
:1004900041F080E0089589B3089586B3089583B349
:1004A000089580B30895813091F0813028F0823032
:1004B000C9F0833061F521C02BB381E090E002C028
:1004C000880F991F6A95E2F728272BBB089528B358
:1004D00081E090E002C0880F991F6A95E2F7282713
:1004E00028BB089525B381E090E002C0880F991FD2
:1004F0006A95E2F7282725BB089522B381E090E0B2
:1005000002C0880F991F6A95E2F7282722BB089539
:100510000F931F93DF93CF9300D000D0CDB7DEB7FA
:100520008091400190914101A0914201B09143011D
:1005300089839A83AB83BC8380911B04853009F443
:1005400069C0863060F4823079F1833018F48130EC
:10055000B9F418C08330D1F1843091F449C08830A7
:1005600009F48EC0893030F4863009F465C08730D4
:1005700039F474C0893009F495C08A3009F4A4C0F4
:1005800080E0B5C080E690E00E94F5008EE690E045
:100590000E94F5008E010F5F1F4FC8010E94FF00EF
:1005A000C80166E870E0A1C08BE890E00E94F50009
:1005B0008EE690E00E94F5008E010F5F1F4FC8018C
:1005C0000E94FF00C8016AE970E08FC08FE990E0E7
:1005D0000E94F5008EE690E00E94F5008E010F5F0C
:1005E0001F4FC8010E94FF00C8016DEA70E07DC086
:1005F00082EB90E00E94F5008EE690E00E94F5000C
:100600008E010F5F1F4FC8010E94FF00C80161ECFF
:1006100070E06BC086EC90E00E94F5008EE690E002
:100620000E94F5008E010F5F1F4FC8010E94FF005E
:10063000C80166ED70E059C08BED90E00E94F500B6
:100640008EE690E00E94F5008E010F5F1F4FC801FB
:100650000E94FF00C8016AEE70E047C08FEE90E094
:100660000E94F5008EE690E00E94F5008E010F5F7B
:100670001F4FC8010E94FF00C8016FEF70E035C036
:1006800084E091E00E94F5008EE690E00E94F50083
:100690008E010F5F1F4FC8010E94FF00C80163E178
:1006A00071E023C088E191E00E94F5008EE690E0C1
:1006B0000E94F5008E010F5F1F4FC8010E94FF00CE
:1006C000C80167E271E011C08CE291E00E94F50080
:1006D0008EE690E00E94F5008E010F5F1F4FC8016B
:1006E0000E94FF00C8016BE371E00E9411010F90AE
:1006F0000F900F900F90CF91DF911F910F91089560
:100700000F931F93DF93CF9300D000D00F92CDB7FC
:10071000DEB780E390E0A0E0B0E089839A83AB830A
:10072000BC831D828E010F5F1F4FC8010E94FF0016
:10073000C80164E471E00E941101813019F48093D2
:100740001B0455C0C80168E471E00E9411018130AA
:1007500011F482E049C0C8016DE471E00E9411010A
:10076000813011F483E040C0C80161E571E00E946E
:100770001101813011F484E037C0C80166E571E0F1
:100780000E941101813011F485E02EC0C8016CE592
:1007900071E00E941101813011F486E025C0C8018A
:1007A00061E671E00E941101813011F487E01CC004
:1007B000C80167E671E00E941101813011F488E000
:1007C00013C0C8016CE671E00E941101813011F480
:1007D00089E00AC0C80161E771E00E94110181301F
:1007E00011F080E004C08AE080931B0481E00F9048
:1007F0000F900F900F900F90CF91DF911F910F915D
:10080000089583E066E040E00E949D0186E791E064
:100810000E94F500089583E066E041E00E949D019A
:1008200087E891E00E94F500089581E060E040E0F3
:100830000E949D0187E991E00E94F500089581E002
:1008400060E041E00E949D018BEA91E00E94F5008A
:10085000089583E067E040E00E949D018EEB91E007
:100860000E94F500089583E067E041E00E949D0149
:100870008CEC91E00E94F500089580E060E040E09B
:100880000E949D018AED91E00E94F500089580E0AC
:1008900060E041E00E949D0184EE91E00E94F5003D
:1008A00008958CEE91E00E94F50085E092E00E94B0
:1008B000F50088E192E00E94F5008CE292E00E944F
:1008C000F50080E492E00E94F50085E592E00E9448
:1008D000F5008BE692E00E94F50080E892E00E942D
:1008E000F50086E992E00E94F5000E9458008433EA
:1008F000D9F0853338F4823389F0833390F481332F
:1009000041F509C08633B1F0863388F08733A9F00A
:100910008833F9F415C00E943304C3CF0E94290420
:10092000C0CF0E944704BDCF0E943D04BACF0E94B1
:100930001504B7CF0E940B04B4CF0E940104B1CFBD
:100940000E9429040E943D040E9415040E94010493
:1009500003C0883309F0A5CF80911B04853041F195
:10096000863060F48230D9F0833018F48130A9F5F4
:1009700013C08330B9F0843081F517C0883009F195
:10098000893028F48630B9F0873039F517C08930BE
:10099000D9F08A3011F51DC080EA92E017C084EBCF
:1009A00092E014C089EC92E011C08DED92E00EC08F
:1009B00082EF92E00BC088E093E008C08DE193E005
:1009C00005C083E393E002C088E493E00E94F50051
:1009D00008958DE593E00E94F5000895813029F196
:1009E00082E793E00E94F50083E893E00E94F5001F
:1009F0000E948802813061F082E793E00E94F50056
:100A000083E893E00E94F5000E948802813019F487
:100A10000E94510408958FE893E00E94F50080EA57
:100A200093E00E94F5000E941F0408951F930E9406
:100A300049000E945C0083E060E040E00E941901F0
:100A400083E061E041E00E94190181E060E041E063
:100A50000E94190183E067E041E00E94190183E0F0
:100A600066E041E00E94190180E061E00E948C0193
:100A700083ED93E00E94F5008CEE93E00E94F50078
:100A80000E948003813059F40E948802182F81301F
:100A900011F40E945104812F0E94EE04E9CF8823B3
:100AA00039F785E094E00E94F500E2CFFB01DC011C
:100AB0008D91019080190110D9F3990B0895F89444
:020AC000FFCF66
:100AC2000A57454C434F4D4520416C690A000A457F
:100AD2006E74657220796F75722070617373776FAF
:100AE20072643A200A0032323232000A57454C43CD
:100AF2004F4D45204F6D61720A0031323433000A86
:100B020057454C434F4D4520416D720A00313536F1
:100B120037000A57454C434F4D45204164656C0AE6
:100B22000037383937000A57454C434F4D4520416D
:100B3200686D65640A0032333435000A57454C4308
:100B42004F4D4520416C61610A0035363334000A4D
:100B520057454C434F4D45204F736D616E0A00312E
:100B6200323536000A57454C434F4D4520416D6999
:100B72006E0A0031323839000A57454C434F4D4511
:100B820020416E61730A0031373938000A57454CEB
:100B9200434F4D452048616C610A003132343400C4
:100BA20030000000416C69004F6D617200416D724E
:100BB200004164656C0041686D656400416C61616F
:100BC200004F736D616E00416D696E00416E61731D
:100BD2000048616C61000A46616E205475726E6550
:100BE20064204F66660A000A46616E205475726E72
:100BF2006564204F6E0A000A42555A5A45522054E3
:100C020075726E6564204F66660A000A42555A5A2A
:100C12004552205475726E6564204F6E0A000A4474
:100C22004F4F5220434C4F5345440A000A444F4F02
:100C320052204F50454E45440A000A4C4544204F2D
:100C420046460A004C45445F4F4E0A000A53656C03
:100C52006563742066726F6D20746865206D656EC1
:100C6200753A200A000A3129204F70656E20746897
:100C72006520646F6F720A000A322920436C6F7319
:100C8200652074686520646F6F720A000A33292038
:100C92004F70656E20746865206C696768740A001D
:100CA2000A342920436C6F736520746865206C696F
:100CB2006768740A000A352920436C6F73652074D3
:100CC20068652062757A7A65720A000A36292054AC
:100CD20075726E206F6E207468652046616E0A0020
:100CE2000A3729205475726E206F66662074686513
:100CF2002046616E0A000A382920457869740A0084
:100D02000A0A416C69205369676E6564204F7574E5
:100D12000A0A0A000A0A4F6D6172205369676E65FA
:100D220064204F75740A0A0A000A0A416D72205340
:100D320069676E6564204F75740A0A0A000A0A41DF
:100D420064656C205369676E6564204F75740A0A86
:100D52000A000A0A41686D6564205369676E65641A
:100D6200204F75740A0A0A000A0A416C6161205315
:100D720069676E6564204F75740A0A0A000A0A4F91
:100D8200736D616E205369676E6564204F75740AD6
:100D92000A0A000A0A416D696E205369676E65642A
:100DA200204F75740A0A0A000A0A416E61732053C1
:100DB20069676E6564204F75740A0A0A000A0A4858
:100DC200616C61205369676E6564204F75740A0A0D
:100DD2000A000A57726F6E672070617373776F72C1
:100DE200640A000A54727920616761696E0A000A16
:100DF200536563757269747920616C6572740A0057
:100E02000A556E7265636F676E697A6564206C6FEE
:100E120067696E7320696E746F20746865207379D8
:100E22007374656D206172652064697361626C65BB
:100E3200640A000A4C6F67696E20746F20536D61FB
:100E4200727420486F6D653A200A0A000A456E7472
:100E5200657220796F75722075736572206E616D8F
:100E6200653A200A000A496E76616C6964205573FE
:040E720065720A009B
:00000001FF
